{
  "contractName": "CapperRole",
  "abi": [
    {
      "inputs": [],
      "payable": false,
      "stateMutability": "nonpayable",
      "type": "constructor"
    },
    {
      "constant": true,
      "inputs": [
        {
          "name": "_account",
          "type": "address"
        }
      ],
      "name": "isCapper",
      "outputs": [
        {
          "name": "",
          "type": "bool"
        }
      ],
      "payable": false,
      "stateMutability": "view",
      "type": "function"
    },
    {
      "constant": false,
      "inputs": [
        {
          "name": "_account",
          "type": "address"
        }
      ],
      "name": "addCapper",
      "outputs": [],
      "payable": false,
      "stateMutability": "nonpayable",
      "type": "function"
    },
    {
      "constant": false,
      "inputs": [],
      "name": "renounceCapper",
      "outputs": [],
      "payable": false,
      "stateMutability": "nonpayable",
      "type": "function"
    }
  ],
  "bytecode": "0x608060405234801561001057600080fd5b5061003233600061003764010000000002610226179091906401000000009004565b610095565b60018260000160008373ffffffffffffffffffffffffffffffffffffffff1673ffffffffffffffffffffffffffffffffffffffff16815260200190815260200160002060006101000a81548160ff0219169083151502179055505050565b6102b0806100a46000396000f300608060405260043610610057576000357c0100000000000000000000000000000000000000000000000000000000900463ffffffff168063395645611461005c5780635d5576f8146100b75780638dfbcf36146100ce575b600080fd5b34801561006857600080fd5b5061009d600480360381019080803573ffffffffffffffffffffffffffffffffffffffff169060200190929190505050610111565b604051808215151515815260200191505060405180910390f35b3480156100c357600080fd5b506100cc61012e565b005b3480156100da57600080fd5b5061010f600480360381019080803573ffffffffffffffffffffffffffffffffffffffff169060200190929190505050610144565b005b600061012782600061016f90919063ffffffff16565b9050919050565b6101423360006101c890919063ffffffff16565b565b61014d33610111565b151561015857600080fd5b61016c81600061022690919063ffffffff16565b50565b60008260000160008373ffffffffffffffffffffffffffffffffffffffff1673ffffffffffffffffffffffffffffffffffffffff16815260200190815260200160002060009054906101000a900460ff16905092915050565b60008260000160008373ffffffffffffffffffffffffffffffffffffffff1673ffffffffffffffffffffffffffffffffffffffff16815260200190815260200160002060006101000a81548160ff0219169083151502179055505050565b60018260000160008373ffffffffffffffffffffffffffffffffffffffff1673ffffffffffffffffffffffffffffffffffffffff16815260200190815260200160002060006101000a81548160ff02191690831515021790555050505600a165627a7a72305820c8e10c83ad3e879344868b080de65adcbb4ba7b8a6d3ebdeae6d9e66e92a55ff0029",
  "source": "// pragma solidity ^0.4.24;\n\nimport \"./Roles.sol\";\n\n\ncontract CapperRole {\n  using Roles for Roles.Role;\n\n  Roles.Role private cappers;\n\n  constructor() public {\n    cappers.add(msg.sender);\n  }\n\n  modifier onlyCapper() {\n    require(isCapper(msg.sender));\n    _;\n  }\n\n  function isCapper(address _account) public view returns (bool) {\n    return cappers.has(_account);\n  }\n\n  function addCapper(address _account) public onlyCapper {\n    cappers.add(_account);\n  }\n\n  function renounceCapper() public {\n    cappers.remove(msg.sender);\n  }\n\n  function _removeCapper(address _account) internal {\n    cappers.remove(_account);\n  }\n}",
  "sourcePath": "/shared/contracts/CapperRole.sol",
  "compiler": {
    "name": "solc",
    "version": "0.4.24+commit.e67f0147.Emscripten.clang"
  },
  "schemaVersion": "2.0.0",
  "updatedAt": "2018-11-01T22:23:33.115Z"
}