{
  "contractName": "MyTimedCrowdsale",
  "abi": [
    {
      "constant": true,
      "inputs": [],
      "name": "hasClosed",
      "outputs": [
        {
          "name": "",
          "type": "bool"
        }
      ],
      "payable": false,
      "stateMutability": "view",
      "type": "function"
    },
    {
      "constant": true,
      "inputs": [],
      "name": "rate",
      "outputs": [
        {
          "name": "",
          "type": "uint256"
        }
      ],
      "payable": false,
      "stateMutability": "view",
      "type": "function"
    },
    {
      "constant": true,
      "inputs": [],
      "name": "weiRaised",
      "outputs": [
        {
          "name": "",
          "type": "uint256"
        }
      ],
      "payable": false,
      "stateMutability": "view",
      "type": "function"
    },
    {
      "constant": true,
      "inputs": [],
      "name": "isOpen",
      "outputs": [
        {
          "name": "",
          "type": "bool"
        }
      ],
      "payable": false,
      "stateMutability": "view",
      "type": "function"
    },
    {
      "constant": true,
      "inputs": [],
      "name": "closingTime",
      "outputs": [
        {
          "name": "",
          "type": "uint256"
        }
      ],
      "payable": false,
      "stateMutability": "view",
      "type": "function"
    },
    {
      "constant": true,
      "inputs": [],
      "name": "wallet",
      "outputs": [
        {
          "name": "",
          "type": "address"
        }
      ],
      "payable": false,
      "stateMutability": "view",
      "type": "function"
    },
    {
      "constant": true,
      "inputs": [],
      "name": "openingTime",
      "outputs": [
        {
          "name": "",
          "type": "uint256"
        }
      ],
      "payable": false,
      "stateMutability": "view",
      "type": "function"
    },
    {
      "constant": false,
      "inputs": [
        {
          "name": "_beneficiary",
          "type": "address"
        }
      ],
      "name": "buyTokens",
      "outputs": [],
      "payable": true,
      "stateMutability": "payable",
      "type": "function"
    },
    {
      "constant": true,
      "inputs": [],
      "name": "token",
      "outputs": [
        {
          "name": "",
          "type": "address"
        }
      ],
      "payable": false,
      "stateMutability": "view",
      "type": "function"
    },
    {
      "inputs": [
        {
          "name": "_rate",
          "type": "uint256"
        },
        {
          "name": "_wallet",
          "type": "address"
        },
        {
          "name": "_token",
          "type": "address"
        },
        {
          "name": "openingTime",
          "type": "uint256"
        },
        {
          "name": "closingTime",
          "type": "uint256"
        }
      ],
      "payable": false,
      "stateMutability": "nonpayable",
      "type": "constructor"
    },
    {
      "payable": true,
      "stateMutability": "payable",
      "type": "fallback"
    },
    {
      "anonymous": false,
      "inputs": [
        {
          "indexed": true,
          "name": "purchaser",
          "type": "address"
        },
        {
          "indexed": true,
          "name": "beneficiary",
          "type": "address"
        },
        {
          "indexed": false,
          "name": "value",
          "type": "uint256"
        },
        {
          "indexed": false,
          "name": "amount",
          "type": "uint256"
        }
      ],
      "name": "TokensPurchased",
      "type": "event"
    }
  ],
  "bytecode": "0x608060405234801561001057600080fd5b5060405160a08061088f8339810180604052810190808051906020019092919080519060200190929190805190602001909291908051906020019092919080519060200190929190505050818186868660008311151561006f57600080fd5b600073ffffffffffffffffffffffffffffffffffffffff168273ffffffffffffffffffffffffffffffffffffffff16141515156100ab57600080fd5b600073ffffffffffffffffffffffffffffffffffffffff168173ffffffffffffffffffffffffffffffffffffffff16141515156100e757600080fd5b8260028190555081600160006101000a81548173ffffffffffffffffffffffffffffffffffffffff021916908373ffffffffffffffffffffffffffffffffffffffff160217905550806000806101000a81548173ffffffffffffffffffffffffffffffffffffffff021916908373ffffffffffffffffffffffffffffffffffffffff16021790555050505042821015151561018157600080fd5b81811015151561019057600080fd5b8160048190555080600581905550505050505050506106db806101b46000396000f300608060405260043610610099576000357c0100000000000000000000000000000000000000000000000000000000900463ffffffff1680631515bc2b146100a45780632c4e722e146100d35780634042b66f146100fe57806347535d7b146101295780634b6753bc14610158578063521eb27314610183578063b7a8807c146101da578063ec8ac4d814610205578063fc0c546a1461023b575b6100a233610292565b005b3480156100b057600080fd5b506100b9610360565b604051808215151515815260200191505060405180910390f35b3480156100df57600080fd5b506100e861036c565b6040518082815260200191505060405180910390f35b34801561010a57600080fd5b50610113610376565b6040518082815260200191505060405180910390f35b34801561013557600080fd5b5061013e610380565b604051808215151515815260200191505060405180910390f35b34801561016457600080fd5b5061016d61039b565b6040518082815260200191505060405180910390f35b34801561018f57600080fd5b506101986103a5565b604051808273ffffffffffffffffffffffffffffffffffffffff1673ffffffffffffffffffffffffffffffffffffffff16815260200191505060405180910390f35b3480156101e657600080fd5b506101ef6103cf565b6040518082815260200191505060405180910390f35b610239600480360381019080803573ffffffffffffffffffffffffffffffffffffffff169060200190929190505050610292565b005b34801561024757600080fd5b506102506103d9565b604051808273ffffffffffffffffffffffffffffffffffffffff1673ffffffffffffffffffffffffffffffffffffffff16815260200191505060405180910390f35b6000803491506102a28383610402565b6102ab82610423565b90506102c28260035461044190919063ffffffff16565b6003819055506102d28382610462565b8273ffffffffffffffffffffffffffffffffffffffff163373ffffffffffffffffffffffffffffffffffffffff167f6faf93231a456e552dbc9961f58d9713ee4f2e69d15f1975b050ef0911053a7b8484604051808381526020018281526020019250505060405180910390a36103498383610470565b610351610474565b61035b83836104df565b505050565b60006005544211905090565b6000600254905090565b6000600354905090565b6000600454421015801561039657506005544211155b905090565b6000600554905090565b6000600160009054906101000a900473ffffffffffffffffffffffffffffffffffffffff16905090565b6000600454905090565b60008060009054906101000a900473ffffffffffffffffffffffffffffffffffffffff16905090565b61040a610380565b151561041557600080fd5b61041f82826104e3565b5050565b600061043a6002548361053390919063ffffffff16565b9050919050565b600080828401905083811015151561045857600080fd5b8091505092915050565b61046c8282610571565b5050565b5050565b600160009054906101000a900473ffffffffffffffffffffffffffffffffffffffff1673ffffffffffffffffffffffffffffffffffffffff166108fc349081150290604051600060405180830381858888f193505050501580156104dc573d6000803e3d6000fd5b50565b5050565b600073ffffffffffffffffffffffffffffffffffffffff168273ffffffffffffffffffffffffffffffffffffffff161415151561051f57600080fd5b6000811415151561052f57600080fd5b5050565b6000806000841415610548576000915061056a565b828402905082848281151561055957fe5b0414151561056657600080fd5b8091505b5092915050565b6105bd82826000809054906101000a900473ffffffffffffffffffffffffffffffffffffffff1673ffffffffffffffffffffffffffffffffffffffff166105c19092919063ffffffff16565b5050565b8273ffffffffffffffffffffffffffffffffffffffff1663a9059cbb83836040518363ffffffff167c0100000000000000000000000000000000000000000000000000000000028152600401808373ffffffffffffffffffffffffffffffffffffffff1673ffffffffffffffffffffffffffffffffffffffff16815260200182815260200192505050602060405180830381600087803b15801561066457600080fd5b505af1158015610678573d6000803e3d6000fd5b505050506040513d602081101561068e57600080fd5b810190808051906020019092919050505015156106aa57600080fd5b5050505600a165627a7a723058201fb2f2e663b4162bb51b8b330eeaf08f2bcc5890ab997961f71e3d175c5599ec0029",
  "source": "pragma solidity ^0.4.24;\n\nimport \"./TimedCrowdsale.sol\";\nimport \"./Crowdsale.sol\";\n\ncontract MyTimedCrowdsale is TimedCrowdsale{\n  constructor(uint256 _rate, address _wallet, IERC20 _token, uint256 openingTime, uint256 closingTime)  Crowdsale(_rate, _wallet, _token) TimedCrowdsale(openingTime, closingTime) public {\n  }\n}\n",
  "sourcePath": "/shared/contracts/MyTimedCrowdsale.sol",
  "compiler": {
    "name": "solc",
    "version": "0.4.24+commit.e67f0147.Emscripten.clang"
  },
  "schemaVersion": "2.0.0",
  "updatedAt": "2018-11-01T22:23:41.384Z"
}